{"abi":[{"type":"constructor","inputs":[],"stateMutability":"nonpayable"},{"type":"function","name":"TOKEN_PRICE","inputs":[],"outputs":[{"name":"","type":"uint256","internalType":"uint256"}],"stateMutability":"view"},{"type":"function","name":"allowance","inputs":[{"name":"owner","type":"address","internalType":"address"},{"name":"spender","type":"address","internalType":"address"}],"outputs":[{"name":"","type":"uint256","internalType":"uint256"}],"stateMutability":"view"},{"type":"function","name":"approve","inputs":[{"name":"spender","type":"address","internalType":"address"},{"name":"value","type":"uint256","internalType":"uint256"}],"outputs":[{"name":"","type":"bool","internalType":"bool"}],"stateMutability":"nonpayable"},{"type":"function","name":"balanceOf","inputs":[{"name":"account","type":"address","internalType":"address"}],"outputs":[{"name":"","type":"uint256","internalType":"uint256"}],"stateMutability":"view"},{"type":"function","name":"buyToken","inputs":[],"outputs":[{"name":"","type":"bool","internalType":"bool"}],"stateMutability":"payable"},{"type":"function","name":"customerTierLevel","inputs":[{"name":"customerAddress","type":"address","internalType":"address"}],"outputs":[{"name":"","type":"uint256","internalType":"uint256"}],"stateMutability":"view"},{"type":"function","name":"decimals","inputs":[],"outputs":[{"name":"","type":"uint8","internalType":"uint8"}],"stateMutability":"view"},{"type":"function","name":"evaluatorAddress","inputs":[],"outputs":[{"name":"","type":"address","internalType":"address"}],"stateMutability":"view"},{"type":"function","name":"getToken","inputs":[],"outputs":[{"name":"","type":"bool","internalType":"bool"}],"stateMutability":"nonpayable"},{"type":"function","name":"isCustomerWhiteListed","inputs":[{"name":"customerAddress","type":"address","internalType":"address"}],"outputs":[{"name":"","type":"bool","internalType":"bool"}],"stateMutability":"view"},{"type":"function","name":"name","inputs":[],"outputs":[{"name":"","type":"string","internalType":"string"}],"stateMutability":"view"},{"type":"function","name":"symbol","inputs":[],"outputs":[{"name":"","type":"string","internalType":"string"}],"stateMutability":"view"},{"type":"function","name":"totalSupply","inputs":[],"outputs":[{"name":"","type":"uint256","internalType":"uint256"}],"stateMutability":"view"},{"type":"function","name":"transfer","inputs":[{"name":"to","type":"address","internalType":"address"},{"name":"value","type":"uint256","internalType":"uint256"}],"outputs":[{"name":"","type":"bool","internalType":"bool"}],"stateMutability":"nonpayable"},{"type":"function","name":"transferFrom","inputs":[{"name":"from","type":"address","internalType":"address"},{"name":"to","type":"address","internalType":"address"},{"name":"value","type":"uint256","internalType":"uint256"}],"outputs":[{"name":"","type":"bool","internalType":"bool"}],"stateMutability":"nonpayable"},{"type":"function","name":"updateAllowList","inputs":[{"name":"user","type":"address","internalType":"address"},{"name":"tier","type":"uint256","internalType":"uint256"}],"outputs":[],"stateMutability":"nonpayable"},{"type":"event","name":"Approval","inputs":[{"name":"owner","type":"address","indexed":true,"internalType":"address"},{"name":"spender","type":"address","indexed":true,"internalType":"address"},{"name":"value","type":"uint256","indexed":false,"internalType":"uint256"}],"anonymous":false},{"type":"event","name":"Transfer","inputs":[{"name":"from","type":"address","indexed":true,"internalType":"address"},{"name":"to","type":"address","indexed":true,"internalType":"address"},{"name":"value","type":"uint256","indexed":false,"internalType":"uint256"}],"anonymous":false},{"type":"error","name":"ERC20InsufficientAllowance","inputs":[{"name":"spender","type":"address","internalType":"address"},{"name":"allowance","type":"uint256","internalType":"uint256"},{"name":"needed","type":"uint256","internalType":"uint256"}]},{"type":"error","name":"ERC20InsufficientBalance","inputs":[{"name":"sender","type":"address","internalType":"address"},{"name":"balance","type":"uint256","internalType":"uint256"},{"name":"needed","type":"uint256","internalType":"uint256"}]},{"type":"error","name":"ERC20InvalidApprover","inputs":[{"name":"approver","type":"address","internalType":"address"}]},{"type":"error","name":"ERC20InvalidReceiver","inputs":[{"name":"receiver","type":"address","internalType":"address"}]},{"type":"error","name":"ERC20InvalidSender","inputs":[{"name":"sender","type":"address","internalType":"address"}]},{"type":"error","name":"ERC20InvalidSpender","inputs":[{"name":"spender","type":"address","internalType":"address"}]}],"bytecode":{"object":"0x608060405234801562000010575f80fd5b506040518060400160405280600581526020017f4144544f4b0000000000000000000000000000000000000000000000000000008152506040518060400160405280600881526020017f687961726b32306500000000000000000000000000000000000000000000000081525081600390816200008e919062000674565b508060049081620000a0919062000674565b5050505f6ad219444a1c69602c1400009050620000c433826200016260201b60201c565b3360065f6101000a81548173ffffffffffffffffffffffffffffffffffffffff021916908373ffffffffffffffffffffffffffffffffffffffff160217905550600260055f73b8d4fdee700263f6f07800aecd702c3d0d74e60173ffffffffffffffffffffffffffffffffffffffff1673ffffffffffffffffffffffffffffffffffffffff1681526020019081526020015f20819055505062000884565b5f73ffffffffffffffffffffffffffffffffffffffff168273ffffffffffffffffffffffffffffffffffffffff1603620001d5575f6040517fec442f05000000000000000000000000000000000000000000000000000000008152600401620001cc91906200079b565b60405180910390fd5b620001e85f8383620001ec60201b60201c565b5050565b5f73ffffffffffffffffffffffffffffffffffffffff168373ffffffffffffffffffffffffffffffffffffffff160362000240578060025f828254620002339190620007e3565b9250508190555062000311565b5f805f8573ffffffffffffffffffffffffffffffffffffffff1673ffffffffffffffffffffffffffffffffffffffff1681526020019081526020015f2054905081811015620002cc578381836040517fe450d38c000000000000000000000000000000000000000000000000000000008152600401620002c3939291906200082e565b60405180910390fd5b8181035f808673ffffffffffffffffffffffffffffffffffffffff1673ffffffffffffffffffffffffffffffffffffffff1681526020019081526020015f2081905550505b5f73ffffffffffffffffffffffffffffffffffffffff168273ffffffffffffffffffffffffffffffffffffffff16036200035a578060025f8282540392505081905550620003a4565b805f808473ffffffffffffffffffffffffffffffffffffffff1673ffffffffffffffffffffffffffffffffffffffff1681526020019081526020015f205f82825401925050819055505b8173ffffffffffffffffffffffffffffffffffffffff168373ffffffffffffffffffffffffffffffffffffffff167fddf252ad1be2c89b69c2b068fc378daa952ba7f163c4a11628f55a4df523b3ef8360405162000403919062000869565b60405180910390a3505050565b5f81519050919050565b7f4e487b71000000000000000000000000000000000000000000000000000000005f52604160045260245ffd5b7f4e487b71000000000000000000000000000000000000000000000000000000005f52602260045260245ffd5b5f60028204905060018216806200048c57607f821691505b602082108103620004a257620004a162000447565b5b50919050565b5f819050815f5260205f209050919050565b5f6020601f8301049050919050565b5f82821b905092915050565b5f60088302620005067fffffffffffffffffffffffffffffffffffffffffffffffffffffffffffffffff82620004c9565b620005128683620004c9565b95508019841693508086168417925050509392505050565b5f819050919050565b5f819050919050565b5f6200055c6200055662000550846200052a565b62000533565b6200052a565b9050919050565b5f819050919050565b62000577836200053c565b6200058f620005868262000563565b848454620004d5565b825550505050565b5f90565b620005a562000597565b620005b28184846200056c565b505050565b5b81811015620005d957620005cd5f826200059b565b600181019050620005b8565b5050565b601f8211156200062857620005f281620004a8565b620005fd84620004ba565b810160208510156200060d578190505b620006256200061c85620004ba565b830182620005b7565b50505b505050565b5f82821c905092915050565b5f6200064a5f19846008026200062d565b1980831691505092915050565b5f62000664838362000639565b9150826002028217905092915050565b6200067f8262000410565b67ffffffffffffffff8111156200069b576200069a6200041a565b5b620006a7825462000474565b620006b4828285620005dd565b5f60209050601f831160018114620006ea575f8415620006d5578287015190505b620006e1858262000657565b86555062000750565b601f198416620006fa86620004a8565b5f5b828110156200072357848901518255600182019150602085019450602081019050620006fc565b868310156200074357848901516200073f601f89168262000639565b8355505b6001600288020188555050505b505050505050565b5f73ffffffffffffffffffffffffffffffffffffffff82169050919050565b5f620007838262000758565b9050919050565b620007958162000777565b82525050565b5f602082019050620007b05f8301846200078a565b92915050565b7f4e487b71000000000000000000000000000000000000000000000000000000005f52601160045260245ffd5b5f620007ef826200052a565b9150620007fc836200052a565b9250828201905080821115620008175762000816620007b6565b5b92915050565b62000828816200052a565b82525050565b5f606082019050620008435f8301866200078a565b6200085260208301856200081d565b6200086160408301846200081d565b949350505050565b5f6020820190506200087e5f8301846200081d565b92915050565b6119dd80620008925f395ff3fe6080604052600436106100f2575f3560e01c806372e0576a11610089578063a9059cbb11610058578063a9059cbb14610328578063d2d8cb6714610364578063d48a87f11461038e578063dd62ed3e146103ca576100f2565b806372e0576a1461027a5780638dd3fda9146102a457806395d89b41146102e0578063a48217191461030a576100f2565b806323b872dd116100c557806323b872dd146101b0578063313ce567146101ec5780633a8c7b291461021657806370a082311461023e576100f2565b806306fdde03146100f6578063095ea7b31461012057806318160ddd1461015c57806321df0da714610186575b5f80fd5b348015610101575f80fd5b5061010a610406565b6040516101179190611137565b60405180910390f35b34801561012b575f80fd5b50610146600480360381019061014191906111e8565b610496565b6040516101539190611240565b60405180910390f35b348015610167575f80fd5b506101706104b8565b60405161017d9190611268565b60405180910390f35b348015610191575f80fd5b5061019a6104c1565b6040516101a79190611240565b60405180910390f35b3480156101bb575f80fd5b506101d660048036038101906101d19190611281565b6105ce565b6040516101e39190611240565b60405180910390f35b3480156101f7575f80fd5b506102006105fc565b60405161020d91906112ec565b60405180910390f35b348015610221575f80fd5b5061023c600480360381019061023791906111e8565b610604565b005b348015610249575f80fd5b50610264600480360381019061025f9190611305565b6106d9565b6040516102719190611268565b60405180910390f35b348015610285575f80fd5b5061028e61071e565b60405161029b919061133f565b60405180910390f35b3480156102af575f80fd5b506102ca60048036038101906102c59190611305565b610736565b6040516102d79190611268565b60405180910390f35b3480156102eb575f80fd5b506102f461077c565b6040516103019190611137565b60405180910390f35b61031261080c565b60405161031f9190611240565b60405180910390f35b348015610333575f80fd5b5061034e600480360381019061034991906111e8565b6109b3565b60405161035b9190611240565b60405180910390f35b34801561036f575f80fd5b506103786109d5565b6040516103859190611268565b60405180910390f35b348015610399575f80fd5b506103b460048036038101906103af9190611305565b6109e0565b6040516103c19190611240565b60405180910390f35b3480156103d5575f80fd5b506103f060048036038101906103eb9190611358565b610a28565b6040516103fd9190611268565b60405180910390f35b606060038054610415906113c3565b80601f0160208091040260200160405190810160405280929190818152602001828054610441906113c3565b801561048c5780601f106104635761010080835404028352916020019161048c565b820191905f5260205f20905b81548152906001019060200180831161046f57829003601f168201915b5050505050905090565b5f806104a0610aaa565b90506104ad818585610ab1565b600191505092915050565b5f600254905090565b5f6104cb336109e0565b61050a576040517f08c379a00000000000000000000000000000000000000000000000000000000081526004016105019061143d565b60405180910390fd5b5f60055f3373ffffffffffffffffffffffffffffffffffffffff1673ffffffffffffffffffffffffffffffffffffffff1681526020019081526020015f205490505f6105546105fc565b600a61056091906115b7565b60648361056d9190611601565b6105779190611601565b90505f81116105bb576040517f08c379a00000000000000000000000000000000000000000000000000000000081526004016105b2906116b2565b60405180910390fd5b6105c53382610ac3565b60019250505090565b5f806105d8610aaa565b90506105e5858285610b42565b6105f0858585610bd5565b60019150509392505050565b5f6012905090565b60065f9054906101000a900473ffffffffffffffffffffffffffffffffffffffff1673ffffffffffffffffffffffffffffffffffffffff163373ffffffffffffffffffffffffffffffffffffffff1614610693576040517f08c379a000000000000000000000000000000000000000000000000000000000815260040161068a90611740565b60405180910390fd5b8060055f8473ffffffffffffffffffffffffffffffffffffffff1673ffffffffffffffffffffffffffffffffffffffff1681526020019081526020015f20819055505050565b5f805f8373ffffffffffffffffffffffffffffffffffffffff1673ffffffffffffffffffffffffffffffffffffffff1681526020019081526020015f20549050919050565b73b8d4fdee700263f6f07800aecd702c3d0d74e60181565b5f60055f8373ffffffffffffffffffffffffffffffffffffffff1673ffffffffffffffffffffffffffffffffffffffff1681526020019081526020015f20549050919050565b60606004805461078b906113c3565b80601f01602080910402602001604051908101604052809291908181526020018280546107b7906113c3565b80156108025780601f106107d957610100808354040283529160200191610802565b820191905f5260205f20905b8154815290600101906020018083116107e557829003601f168201915b5050505050905090565b5f610816336109e0565b610855576040517f08c379a000000000000000000000000000000000000000000000000000000000815260040161084c9061143d565b60405180910390fd5b5f3411610897576040517f08c379a000000000000000000000000000000000000000000000000000000000815260040161088e906117a8565b60405180910390fd5b5f60055f3373ffffffffffffffffffffffffffffffffffffffff1673ffffffffffffffffffffffffffffffffffffffff1681526020019081526020015f205490505f811161091a576040517f08c379a000000000000000000000000000000000000000000000000000000000815260040161091190611836565b60405180910390fd5b5f66038d7ea4c6800061092b6105fc565b600a61093791906115b7565b346109429190611601565b61094c9190611881565b90505f828261095b9190611601565b90505f811161099f576040517f08c379a000000000000000000000000000000000000000000000000000000000815260040161099690611921565b60405180910390fd5b6109a93382610ac3565b6001935050505090565b5f806109bd610aaa565b90506109ca818585610bd5565b600191505092915050565b66038d7ea4c6800081565b5f8060055f8473ffffffffffffffffffffffffffffffffffffffff1673ffffffffffffffffffffffffffffffffffffffff1681526020019081526020015f2054119050919050565b5f60015f8473ffffffffffffffffffffffffffffffffffffffff1673ffffffffffffffffffffffffffffffffffffffff1681526020019081526020015f205f8373ffffffffffffffffffffffffffffffffffffffff1673ffffffffffffffffffffffffffffffffffffffff1681526020019081526020015f2054905092915050565b5f33905090565b610abe8383836001610cc5565b505050565b5f73ffffffffffffffffffffffffffffffffffffffff168273ffffffffffffffffffffffffffffffffffffffff1603610b33575f6040517fec442f05000000000000000000000000000000000000000000000000000000008152600401610b2a919061133f565b60405180910390fd5b610b3e5f8383610e94565b5050565b5f610b4d8484610a28565b90507fffffffffffffffffffffffffffffffffffffffffffffffffffffffffffffffff811015610bcf5781811015610bc0578281836040517ffb8f41b2000000000000000000000000000000000000000000000000000000008152600401610bb79392919061193f565b60405180910390fd5b610bce84848484035f610cc5565b5b50505050565b5f73ffffffffffffffffffffffffffffffffffffffff168373ffffffffffffffffffffffffffffffffffffffff1603610c45575f6040517f96c6fd1e000000000000000000000000000000000000000000000000000000008152600401610c3c919061133f565b60405180910390fd5b5f73ffffffffffffffffffffffffffffffffffffffff168273ffffffffffffffffffffffffffffffffffffffff1603610cb5575f6040517fec442f05000000000000000000000000000000000000000000000000000000008152600401610cac919061133f565b60405180910390fd5b610cc0838383610e94565b505050565b5f73ffffffffffffffffffffffffffffffffffffffff168473ffffffffffffffffffffffffffffffffffffffff1603610d35575f6040517fe602df05000000000000000000000000000000000000000000000000000000008152600401610d2c919061133f565b60405180910390fd5b5f73ffffffffffffffffffffffffffffffffffffffff168373ffffffffffffffffffffffffffffffffffffffff1603610da5575f6040517f94280d62000000000000000000000000000000000000000000000000000000008152600401610d9c919061133f565b60405180910390fd5b8160015f8673ffffffffffffffffffffffffffffffffffffffff1673ffffffffffffffffffffffffffffffffffffffff1681526020019081526020015f205f8573ffffffffffffffffffffffffffffffffffffffff1673ffffffffffffffffffffffffffffffffffffffff1681526020019081526020015f20819055508015610e8e578273ffffffffffffffffffffffffffffffffffffffff168473ffffffffffffffffffffffffffffffffffffffff167f8c5be1e5ebec7d5bd14f71427d1e84f3dd0314c0f7b2291e5b200ac8c7c3b92584604051610e859190611268565b60405180910390a35b50505050565b5f73ffffffffffffffffffffffffffffffffffffffff168373ffffffffffffffffffffffffffffffffffffffff1603610ee4578060025f828254610ed89190611974565b92505081905550610fb2565b5f805f8573ffffffffffffffffffffffffffffffffffffffff1673ffffffffffffffffffffffffffffffffffffffff1681526020019081526020015f2054905081811015610f6d578381836040517fe450d38c000000000000000000000000000000000000000000000000000000008152600401610f649392919061193f565b60405180910390fd5b8181035f808673ffffffffffffffffffffffffffffffffffffffff1673ffffffffffffffffffffffffffffffffffffffff1681526020019081526020015f2081905550505b5f73ffffffffffffffffffffffffffffffffffffffff168273ffffffffffffffffffffffffffffffffffffffff1603610ff9578060025f8282540392505081905550611043565b805f808473ffffffffffffffffffffffffffffffffffffffff1673ffffffffffffffffffffffffffffffffffffffff1681526020019081526020015f205f82825401925050819055505b8173ffffffffffffffffffffffffffffffffffffffff168373ffffffffffffffffffffffffffffffffffffffff167fddf252ad1be2c89b69c2b068fc378daa952ba7f163c4a11628f55a4df523b3ef836040516110a09190611268565b60405180910390a3505050565b5f81519050919050565b5f82825260208201905092915050565b5f5b838110156110e45780820151818401526020810190506110c9565b5f8484015250505050565b5f601f19601f8301169050919050565b5f611109826110ad565b61111381856110b7565b93506111238185602086016110c7565b61112c816110ef565b840191505092915050565b5f6020820190508181035f83015261114f81846110ff565b905092915050565b5f80fd5b5f73ffffffffffffffffffffffffffffffffffffffff82169050919050565b5f6111848261115b565b9050919050565b6111948161117a565b811461119e575f80fd5b50565b5f813590506111af8161118b565b92915050565b5f819050919050565b6111c7816111b5565b81146111d1575f80fd5b50565b5f813590506111e2816111be565b92915050565b5f80604083850312156111fe576111fd611157565b5b5f61120b858286016111a1565b925050602061121c858286016111d4565b9150509250929050565b5f8115159050919050565b61123a81611226565b82525050565b5f6020820190506112535f830184611231565b92915050565b611262816111b5565b82525050565b5f60208201905061127b5f830184611259565b92915050565b5f805f6060848603121561129857611297611157565b5b5f6112a5868287016111a1565b93505060206112b6868287016111a1565b92505060406112c7868287016111d4565b9150509250925092565b5f60ff82169050919050565b6112e6816112d1565b82525050565b5f6020820190506112ff5f8301846112dd565b92915050565b5f6020828403121561131a57611319611157565b5b5f611327848285016111a1565b91505092915050565b6113398161117a565b82525050565b5f6020820190506113525f830184611330565b92915050565b5f806040838503121561136e5761136d611157565b5b5f61137b858286016111a1565b925050602061138c858286016111a1565b9150509250929050565b7f4e487b71000000000000000000000000000000000000000000000000000000005f52602260045260245ffd5b5f60028204905060018216806113da57607f821691505b6020821081036113ed576113ec611396565b5b50919050565b7f596f7520617265206e6f74206f6e2074686520616c6c6f772d6c6973740000005f82015250565b5f611427601d836110b7565b9150611432826113f3565b602082019050919050565b5f6020820190508181035f8301526114548161141b565b9050919050565b7f4e487b71000000000000000000000000000000000000000000000000000000005f52601160045260245ffd5b5f8160011c9050919050565b5f808291508390505b60018511156114dd578086048111156114b9576114b861145b565b5b60018516156114c85780820291505b80810290506114d685611488565b945061149d565b94509492505050565b5f826114f557600190506115b0565b81611502575f90506115b0565b8160018114611518576002811461152257611551565b60019150506115b0565b60ff8411156115345761153361145b565b5b8360020a91508482111561154b5761154a61145b565b5b506115b0565b5060208310610133831016604e8410600b84101617156115865782820a9050838111156115815761158061145b565b5b6115b0565b6115938484846001611494565b925090508184048111156115aa576115a961145b565b5b81810290505b9392505050565b5f6115c1826111b5565b91506115cc836112d1565b92506115f97fffffffffffffffffffffffffffffffffffffffffffffffffffffffffffffffff84846114e6565b905092915050565b5f61160b826111b5565b9150611616836111b5565b9250828202611624816111b5565b9150828204841483151761163b5761163a61145b565b5b5092915050565b7f496e76616c69642074696572206c6576656c20666f72206672656520746f6b655f8201527f6e73000000000000000000000000000000000000000000000000000000000000602082015250565b5f61169c6022836110b7565b91506116a782611642565b604082019050919050565b5f6020820190508181035f8301526116c981611690565b9050919050565b7f4f6e6c79206f776e65722063616e2063616c6c20746869732066756e6374696f5f8201527f6e00000000000000000000000000000000000000000000000000000000000000602082015250565b5f61172a6021836110b7565b9150611735826116d0565b604082019050919050565b5f6020820190508181035f8301526117578161171e565b9050919050565b7f596f75206d7573742073656e642045544820746f2062757920746f6b656e73005f82015250565b5f611792601f836110b7565b915061179d8261175e565b602082019050919050565b5f6020820190508181035f8301526117bf81611786565b9050919050565b7f596f7520617265206e6f7420616c6c6f77656420746f2062757920746f6b656e5f8201527f7300000000000000000000000000000000000000000000000000000000000000602082015250565b5f6118206021836110b7565b915061182b826117c6565b604082019050919050565b5f6020820190508181035f83015261184d81611814565b9050919050565b7f4e487b71000000000000000000000000000000000000000000000000000000005f52601260045260245ffd5b5f61188b826111b5565b9150611896836111b5565b9250826118a6576118a5611854565b5b828204905092915050565b7f4e6f7420656e6f756768204554482073656e7420746f2062757920746f6b656e5f8201527f7300000000000000000000000000000000000000000000000000000000000000602082015250565b5f61190b6021836110b7565b9150611916826118b1565b604082019050919050565b5f6020820190508181035f830152611938816118ff565b9050919050565b5f6060820190506119525f830186611330565b61195f6020830185611259565b61196c6040830184611259565b949350505050565b5f61197e826111b5565b9150611989836111b5565b92508282019050808211156119a1576119a061145b565b5b9291505056fea264697066735822122061644cd17499e4448f622c266c877dd4f130e6896fd244b69466f7d14bc0b6e864736f6c63430008140033","linkReferences":{}},"methodIdentifiers":{"TOKEN_PRICE()":"d2d8cb67","allowance(address,address)":"dd62ed3e","approve(address,uint256)":"095ea7b3","balanceOf(address)":"70a08231","buyToken()":"a4821719","customerTierLevel(address)":"8dd3fda9","decimals()":"313ce567","evaluatorAddress()":"72e0576a","getToken()":"21df0da7","isCustomerWhiteListed(address)":"d48a87f1","name()":"06fdde03","symbol()":"95d89b41","totalSupply()":"18160ddd","transfer(address,uint256)":"a9059cbb","transferFrom(address,address,uint256)":"23b872dd","updateAllowList(address,uint256)":"3a8c7b29"},"id":5}