{"abi":[{"type":"constructor","inputs":[],"stateMutability":"nonpayable"},{"type":"function","name":"TOKEN_PRICE","inputs":[],"outputs":[{"name":"","type":"uint256","internalType":"uint256"}],"stateMutability":"view"},{"type":"function","name":"allowance","inputs":[{"name":"owner","type":"address","internalType":"address"},{"name":"spender","type":"address","internalType":"address"}],"outputs":[{"name":"","type":"uint256","internalType":"uint256"}],"stateMutability":"view"},{"type":"function","name":"approve","inputs":[{"name":"spender","type":"address","internalType":"address"},{"name":"value","type":"uint256","internalType":"uint256"}],"outputs":[{"name":"","type":"bool","internalType":"bool"}],"stateMutability":"nonpayable"},{"type":"function","name":"balanceOf","inputs":[{"name":"account","type":"address","internalType":"address"}],"outputs":[{"name":"","type":"uint256","internalType":"uint256"}],"stateMutability":"view"},{"type":"function","name":"buyToken","inputs":[],"outputs":[{"name":"","type":"bool","internalType":"bool"}],"stateMutability":"payable"},{"type":"function","name":"customerTierLevel","inputs":[{"name":"customerAddress","type":"address","internalType":"address"}],"outputs":[{"name":"","type":"uint256","internalType":"uint256"}],"stateMutability":"view"},{"type":"function","name":"decimals","inputs":[],"outputs":[{"name":"","type":"uint8","internalType":"uint8"}],"stateMutability":"view"},{"type":"function","name":"evaluatorAddress","inputs":[],"outputs":[{"name":"","type":"address","internalType":"address"}],"stateMutability":"view"},{"type":"function","name":"getToken","inputs":[],"outputs":[{"name":"","type":"bool","internalType":"bool"}],"stateMutability":"nonpayable"},{"type":"function","name":"isCustomerWhiteListed","inputs":[{"name":"customerAddress","type":"address","internalType":"address"}],"outputs":[{"name":"","type":"bool","internalType":"bool"}],"stateMutability":"view"},{"type":"function","name":"name","inputs":[],"outputs":[{"name":"","type":"string","internalType":"string"}],"stateMutability":"view"},{"type":"function","name":"symbol","inputs":[],"outputs":[{"name":"","type":"string","internalType":"string"}],"stateMutability":"view"},{"type":"function","name":"totalSupply","inputs":[],"outputs":[{"name":"","type":"uint256","internalType":"uint256"}],"stateMutability":"view"},{"type":"function","name":"transfer","inputs":[{"name":"to","type":"address","internalType":"address"},{"name":"value","type":"uint256","internalType":"uint256"}],"outputs":[{"name":"","type":"bool","internalType":"bool"}],"stateMutability":"nonpayable"},{"type":"function","name":"transferFrom","inputs":[{"name":"from","type":"address","internalType":"address"},{"name":"to","type":"address","internalType":"address"},{"name":"value","type":"uint256","internalType":"uint256"}],"outputs":[{"name":"","type":"bool","internalType":"bool"}],"stateMutability":"nonpayable"},{"type":"function","name":"updateAllowList","inputs":[{"name":"user","type":"address","internalType":"address"},{"name":"tier","type":"uint256","internalType":"uint256"}],"outputs":[],"stateMutability":"nonpayable"},{"type":"event","name":"Approval","inputs":[{"name":"owner","type":"address","indexed":true,"internalType":"address"},{"name":"spender","type":"address","indexed":true,"internalType":"address"},{"name":"value","type":"uint256","indexed":false,"internalType":"uint256"}],"anonymous":false},{"type":"event","name":"Transfer","inputs":[{"name":"from","type":"address","indexed":true,"internalType":"address"},{"name":"to","type":"address","indexed":true,"internalType":"address"},{"name":"value","type":"uint256","indexed":false,"internalType":"uint256"}],"anonymous":false},{"type":"error","name":"ERC20InsufficientAllowance","inputs":[{"name":"spender","type":"address","internalType":"address"},{"name":"allowance","type":"uint256","internalType":"uint256"},{"name":"needed","type":"uint256","internalType":"uint256"}]},{"type":"error","name":"ERC20InsufficientBalance","inputs":[{"name":"sender","type":"address","internalType":"address"},{"name":"balance","type":"uint256","internalType":"uint256"},{"name":"needed","type":"uint256","internalType":"uint256"}]},{"type":"error","name":"ERC20InvalidApprover","inputs":[{"name":"approver","type":"address","internalType":"address"}]},{"type":"error","name":"ERC20InvalidReceiver","inputs":[{"name":"receiver","type":"address","internalType":"address"}]},{"type":"error","name":"ERC20InvalidSender","inputs":[{"name":"sender","type":"address","internalType":"address"}]},{"type":"error","name":"ERC20InvalidSpender","inputs":[{"name":"spender","type":"address","internalType":"address"}]}],"bytecode":{"object":"0x608060405234801562000010575f80fd5b50604051806040016040528060058152602001644144544f4b60d81b81525060405180604001604052806008815260200167687961726b32306560c01b8152508160039081620000619190620002f5565b506004620000708282620002f5565b506ad219444a1c69602c14000091506200008d90503382620000e6565b50600680546001600160a01b0319163317905573b8d4fdee700263f6f07800aecd702c3d0d74e6015f52600560205260027f9a596214d5f163cbbfd364ae067a8dacb2c2b689222827e6da52b9644bd8678555620003e3565b6001600160a01b038216620001155760405163ec442f0560e01b81525f60048201526024015b60405180910390fd5b620001225f838362000126565b5050565b6001600160a01b03831662000154578060025f828254620001489190620003bd565b90915550620001c69050565b6001600160a01b0383165f9081526020819052604090205481811015620001a85760405163391434e360e21b81526001600160a01b038516600482015260248101829052604481018390526064016200010c565b6001600160a01b0384165f9081526020819052604090209082900390555b6001600160a01b038216620001e45760028054829003905562000202565b6001600160a01b0382165f9081526020819052604090208054820190555b816001600160a01b0316836001600160a01b03167fddf252ad1be2c89b69c2b068fc378daa952ba7f163c4a11628f55a4df523b3ef836040516200024891815260200190565b60405180910390a3505050565b634e487b7160e01b5f52604160045260245ffd5b600181811c908216806200027e57607f821691505b6020821081036200029d57634e487b7160e01b5f52602260045260245ffd5b50919050565b601f821115620002f0575f81815260208120601f850160051c81016020861015620002cb5750805b601f850160051c820191505b81811015620002ec57828155600101620002d7565b5050505b505050565b81516001600160401b0381111562000311576200031162000255565b620003298162000322845462000269565b84620002a3565b602080601f8311600181146200035f575f8415620003475750858301515b5f19600386901b1c1916600185901b178555620002ec565b5f85815260208120601f198616915b828110156200038f578886015182559484019460019091019084016200036e565b5085821015620003ad57878501515f19600388901b60f8161c191681555b5050505050600190811b01905550565b80820180821115620003dd57634e487b7160e01b5f52601160045260245ffd5b92915050565b610d5780620003f15f395ff3fe6080604052600436106100ef575f3560e01c806372e0576a11610087578063a9059cbb11610057578063a9059cbb1461029c578063d2d8cb67146102bb578063d48a87f1146102d5578063dd62ed3e1461030b575f80fd5b806372e0576a1461020d5780638dd3fda91461024c57806395d89b4114610280578063a482171914610294575f80fd5b806323b872dd116100c257806323b872dd1461017e578063313ce5671461019d5780633a8c7b29146101b857806370a08231146101d9575f80fd5b806306fdde03146100f3578063095ea7b31461011d57806318160ddd1461014c57806321df0da71461016a575b5f80fd5b3480156100fe575f80fd5b5061010761034f565b6040516101149190610a86565b60405180910390f35b348015610128575f80fd5b5061013c610137366004610aec565b6103df565b6040519015158152602001610114565b348015610157575f80fd5b506002545b604051908152602001610114565b348015610175575f80fd5b5061013c6103f8565b348015610189575f80fd5b5061013c610198366004610b14565b6104f8565b3480156101a8575f80fd5b5060405160128152602001610114565b3480156101c3575f80fd5b506101d76101d2366004610aec565b61051b565b005b3480156101e4575f80fd5b5061015c6101f3366004610b4d565b6001600160a01b03165f9081526020819052604090205490565b348015610218575f80fd5b5061023473b8d4fdee700263f6f07800aecd702c3d0d74e60181565b6040516001600160a01b039091168152602001610114565b348015610257575f80fd5b5061015c610266366004610b4d565b6001600160a01b03165f9081526005602052604090205490565b34801561028b575f80fd5b5061010761059a565b61013c6105a9565b3480156102a7575f80fd5b5061013c6102b6366004610aec565b61075e565b3480156102c6575f80fd5b5061015c66038d7ea4c6800081565b3480156102e0575f80fd5b5061013c6102ef366004610b4d565b6001600160a01b03165f90815260056020526040902054151590565b348015610316575f80fd5b5061015c610325366004610b6d565b6001600160a01b039182165f90815260016020908152604080832093909416825291909152205490565b60606003805461035e90610b9e565b80601f016020809104026020016040519081016040528092919081815260200182805461038a90610b9e565b80156103d55780601f106103ac576101008083540402835291602001916103d5565b820191905f5260205f20905b8154815290600101906020018083116103b857829003601f168201915b5050505050905090565b5f336103ec81858561076b565b60019150505b92915050565b335f908152600560205260408120546104585760405162461bcd60e51b815260206004820152601d60248201527f596f7520617265206e6f74206f6e2074686520616c6c6f772d6c69737400000060448201526064015b60405180910390fd5b335f90815260056020526040812054906104746012600a610cca565b61047f836064610cd8565b6104899190610cd8565b90505f81116104e55760405162461bcd60e51b815260206004820152602260248201527f496e76616c69642074696572206c6576656c20666f72206672656520746f6b656044820152616e7360f01b606482015260840161044f565b6104ef338261077d565b60019250505090565b5f336105058582856107b5565b610510858585610831565b506001949350505050565b6006546001600160a01b0316331461057f5760405162461bcd60e51b815260206004820152602160248201527f4f6e6c79206f776e65722063616e2063616c6c20746869732066756e6374696f6044820152603760f91b606482015260840161044f565b6001600160a01b039091165f90815260056020526040902055565b60606004805461035e90610b9e565b335f908152600560205260408120546106045760405162461bcd60e51b815260206004820152601d60248201527f596f7520617265206e6f74206f6e2074686520616c6c6f772d6c697374000000604482015260640161044f565b5f34116106535760405162461bcd60e51b815260206004820152601f60248201527f596f75206d7573742073656e642045544820746f2062757920746f6b656e7300604482015260640161044f565b335f90815260056020526040902054806106b95760405162461bcd60e51b815260206004820152602160248201527f596f7520617265206e6f7420616c6c6f77656420746f2062757920746f6b656e6044820152607360f81b606482015260840161044f565b5f66038d7ea4c680006106ce6012600a610cca565b6106d89034610cd8565b6106e29190610cef565b90505f6106ef8383610cd8565b90505f811161074a5760405162461bcd60e51b815260206004820152602160248201527f4e6f7420656e6f756768204554482073656e7420746f2062757920746f6b656e6044820152607360f81b606482015260840161044f565b610754338261077d565b6001935050505090565b5f336103ec818585610831565b610778838383600161088e565b505050565b6001600160a01b0382166107a65760405163ec442f0560e01b81525f600482015260240161044f565b6107b15f8383610960565b5050565b6001600160a01b038381165f908152600160209081526040808320938616835292905220545f1981101561082b578181101561081d57604051637dc7a0d960e11b81526001600160a01b0384166004820152602481018290526044810183905260640161044f565b61082b84848484035f61088e565b50505050565b6001600160a01b03831661085a57604051634b637e8f60e11b81525f600482015260240161044f565b6001600160a01b0382166108835760405163ec442f0560e01b81525f600482015260240161044f565b610778838383610960565b6001600160a01b0384166108b75760405163e602df0560e01b81525f600482015260240161044f565b6001600160a01b0383166108e057604051634a1406b160e11b81525f600482015260240161044f565b6001600160a01b038085165f908152600160209081526040808320938716835292905220829055801561082b57826001600160a01b0316846001600160a01b03167f8c5be1e5ebec7d5bd14f71427d1e84f3dd0314c0f7b2291e5b200ac8c7c3b9258460405161095291815260200190565b60405180910390a350505050565b6001600160a01b03831661098a578060025f82825461097f9190610d0e565b909155506109fa9050565b6001600160a01b0383165f90815260208190526040902054818110156109dc5760405163391434e360e21b81526001600160a01b0385166004820152602481018290526044810183905260640161044f565b6001600160a01b0384165f9081526020819052604090209082900390555b6001600160a01b038216610a1657600280548290039055610a34565b6001600160a01b0382165f9081526020819052604090208054820190555b816001600160a01b0316836001600160a01b03167fddf252ad1be2c89b69c2b068fc378daa952ba7f163c4a11628f55a4df523b3ef83604051610a7991815260200190565b60405180910390a3505050565b5f6020808352835180828501525f5b81811015610ab157858101830151858201604001528201610a95565b505f604082860101526040601f19601f8301168501019250505092915050565b80356001600160a01b0381168114610ae7575f80fd5b919050565b5f8060408385031215610afd575f80fd5b610b0683610ad1565b946020939093013593505050565b5f805f60608486031215610b26575f80fd5b610b2f84610ad1565b9250610b3d60208501610ad1565b9150604084013590509250925092565b5f60208284031215610b5d575f80fd5b610b6682610ad1565b9392505050565b5f8060408385031215610b7e575f80fd5b610b8783610ad1565b9150610b9560208401610ad1565b90509250929050565b600181811c90821680610bb257607f821691505b602082108103610bd057634e487b7160e01b5f52602260045260245ffd5b50919050565b634e487b7160e01b5f52601160045260245ffd5b600181815b80851115610c2457815f1904821115610c0a57610c0a610bd6565b80851615610c1757918102915b93841c9390800290610bef565b509250929050565b5f82610c3a575060016103f2565b81610c4657505f6103f2565b8160018114610c5c5760028114610c6657610c82565b60019150506103f2565b60ff841115610c7757610c77610bd6565b50506001821b6103f2565b5060208310610133831016604e8410600b8410161715610ca5575081810a6103f2565b610caf8383610bea565b805f1904821115610cc257610cc2610bd6565b029392505050565b5f610b6660ff841683610c2c565b80820281158282048414176103f2576103f2610bd6565b5f82610d0957634e487b7160e01b5f52601260045260245ffd5b500490565b808201808211156103f2576103f2610bd656fea264697066735822122000ab82a96f5d573cf0c433b0a4829385764fbe50929214338ad79319f2a259fe64736f6c63430008140033","linkReferences":{}},"methodIdentifiers":{"TOKEN_PRICE()":"d2d8cb67","allowance(address,address)":"dd62ed3e","approve(address,uint256)":"095ea7b3","balanceOf(address)":"70a08231","buyToken()":"a4821719","customerTierLevel(address)":"8dd3fda9","decimals()":"313ce567","evaluatorAddress()":"72e0576a","getToken()":"21df0da7","isCustomerWhiteListed(address)":"d48a87f1","name()":"06fdde03","symbol()":"95d89b41","totalSupply()":"18160ddd","transfer(address,uint256)":"a9059cbb","transferFrom(address,address,uint256)":"23b872dd","updateAllowList(address,uint256)":"3a8c7b29"},"id":25}